:020000040000FA
:0400000007EF00F016
:1000080016826EED00F058EF01F0908034EF00F0AA
:100018003F0E916E6AEF00F0060E916E6AEF00F0E7
:100028005B0E916E6AEF00F04F0E916E6AEF00F072
:10003800660E916E6AEF00F06D0E916E6AEF00F039
:100048007D0E916E6AEF00F0070E916E6AEF00F078
:100058007F0E916E6AEF00F06F0E916E6AEF00F0FE
:100068000BC00DF00CC00EF00E50000AD8B43FEFD4
:1000780000F06AEF00F00D50000AD8B40CEF00F061
:10008800010AD8B410EF00F0030AD8B414EF00F056
:10009800010AD8B418EF00F0070AD8B41CEF00F032
:1000A800010AD8B420EF00F0030AD8B424EF00F016
:1000B800010AD8B428EF00F00F0AD8B42CEF00F0EA
:1000C800010AD8B430EF00F06AEF00F090906FECBE
:1000D80001F0120006009EAC74EF00F076EF00F01D
:1000E8007BEF00F0000E046E010E036E9E9CF2A4DE
:1000F80080EF00F082EF00F099EF00F01306D8A02F
:10010800140613501410D8A48CEF00F08EEF00F0F2
:1001180096EF00F0000E086E010E076E000E146ECA
:100128000A0E136E3D0ED66EF2949EA09EEF00F05E
:10013800A0EF00F0B9EF00F01106D8A01206115098
:100148001210D8A4AAEF00F0ACEF00F0B4EF00F062
:10015800000E066E010E056E000E126E7D0E116EFB
:100168003C0ECF6EB00ECE6E9E9016921100F2EC41
:1001780000F007500810D8B4C4EF00F0C6EF00F044
:10018800CAEF00F0000E086E000E076E055006104C
:10019800D8B4D1EF00F0D3EF00F0DBEF00F072EC51
:1001A80001F070EC01F0000E066E000E056E0350B3
:1001B8000410D8B4E2EF00F0E4EF00F0BDEF00F077
:1001C8000FC00BF010C00CF009EC00F0000E046E2C
:1001D800000E036EBDEF00F007EF00F0000EF26EA8
:1001E800000ED76E000ED66ED70ED56E3D0ED66EAB
:1001F800000E146E0A0E136E000ECF6E000ECE6E39
:10020800F90ECD6E3C0ECF6EB00ECE6E000E126E95
:100218007D0E116E300EC26E000EC16E820EC06E63
:10022800C280E00EF26E9D80000E9A6E000E996EEE
:10023800000E946E000E956E000E966E010E936E73
:1002480071EC01F012000B500C10D8A42EEF01F045
:1002580030EF01F03AEF01F08C808C828C848C8630
:100268008B928D928B848D8455EF01F00B040C10CA
:10027800D8A441EF01F043EF01F04DEF01F08C807D
:100288008C828C848C868B828D828B948D9455EF96
:1002980001F08C908C928C948C968B928D928B948E
:1002A8008D946EEC01F01200E60EF66E020EF76EFB
:1002B800000EF86E0900F5CF15F000EE01F00A0EF9
:1002C800EE6AE806FDE1169016920001BBEF00F019
:0F02D80015501200120012001200120012000442
:020000040020DA
:08000000FFFFFFFFFFFFFFFF00
:020000040030CA
:0E000000FF06191EF38381FFFFC0FFE0FF40E3
:00000001FF
