:020000040000FA
:0400000007EF00F016
:100008002A828EED01F0B9EF03F00ABE17EF00F077
:100018000A5007E1670E095CD8B015EF00F017EF3A
:1000280000F01DEF00F0000E186E000E176ECEEFF8
:1000380000F00ABE2BEF00F00A5007E1CD0E095C74
:10004800D8B029EF00F02BEF00F031EF00F0000EF0
:10005800186E010E176ECEEF00F00ABE3FEF00F0EB
:10006800330E095C010E0A58D8B03DEF00F03FEF9F
:1000780000F045EF00F0000E186E020E176ECEEF7E
:1000880000F00ABE53EF00F0990E095C010E0A5801
:10009800D8B051EF00F053EF00F059EF00F0000E28
:1000A800186E030E176ECEEF00F00ABE66EF00F072
:1000B8000928010E0A58D8B064EF00F066EF00F086
:1000C8006CEF00F0000E186E040E176ECEEF00F005
:1000D8000ABE7AEF00F0650E095C020E0A58D8B025
:1000E80078EF00F07AEF00F080EF00F0000E186E65
:1000F800050E176ECEEF00F00ABE8EEF00F0CB0EA5
:10010800095C020E0A58D8B08CEF00F08EEF00F0B0
:1001180094EF00F0000E186E060E176ECEEF00F08A
:100128000ABEA2EF00F0310E095C030E0A58D8B0DF
:10013800A0EF00F0A2EF00F0A8EF00F0000E186E9C
:10014800070E176ECEEF00F00ABEB6EF00F0970E5E
:10015800095C030E0A58D8B0B4EF00F0B6EF00F00F
:10016800BCEF00F0000E186E080E176ECEEF00F010
:100178000ABEC8EF00F0040E0A5CD8B0C6EF00F063
:10018800C8EF00F0CEEF00F0000E186E090E176EE3
:10019800CEEF00F012004FEC03F013501410D8B457
:1001A800D8EF00F0DAEF00F0E0EF00F0000E146E88
:1001B800000E136E9D8CC28211501210D8B4E7EF56
:1001C80000F0E9EF00F0FDEF00F0000E126E000EF7
:1001D800116E2306D8A0240623502410D8A4F7EFC4
:1001E80000F0F9EF00F0FDEF00F0D0EC03F0FAECCE
:1001F80002F00F501010D8B404EF01F006EF01F030
:1002080041EF01F0000E106E000E0F6EC4CF1FF00C
:10021800010E1F161F50216E206AC4CF22F0020E55
:1002280022162250176E186A000E1A6E020E196EE8
:1002380098EC02F0090ED89017361836E82E1FEF02
:1002480001F02050172621501822C3501724096E98
:10025800000E18200A6E09C015F00AC016F0D2EC7C
:1002680003F009EC00F017C007F018C008F007C049
:1002780017F008C018F024EC02F00D500E10D8B496
:1002880048EF01F04AEF01F0D1EF00F0000E0E6EDA
:10029800000E0D6ECFEC03F0CDEC03F01F6E206A5C
:1002A8001F50075C0850800A216E2050800A215890
:1002B800D8B061EF01F063EF01F06BEF01F0000ED1
:1002C800186E000E176E88EC03F0D1EF00F0CDEC3D
:1002D80003F01F6E206A07501F5C2050800A216EB1
:1002E8000850800A2158D8B07CEF01F07EEF01F069
:1002F80086EF01F0000E186E010E176E88EC03F001
:10030800D1EF00F0D1EC03F0FAEC02F0D1EF00F0FD
:1003180007EF00F006009EAC94EF01F096EF01F0B5
:100328009BEF01F0000E106E010E0F6E9E9CF2A462
:10033800A0EF01F0A2EF01F0DEEF01F0055006108A
:10034800D8B4A9EF01F0ABEF01F0C6EF01F003500C
:100358000410D8B4B2EF01F0B4EF01F0C2EF01F02D
:10036800000E0E6E010E0D6E000E046E000E036E72
:10037800000E066E000E056EC6EF01F0000E046E4C
:10038800010E036E2706D8A0280627502810D8A4E7
:10039800D0EF01F0D2EF01F0DAEF01F0000E146EA9
:1003A800010E136E000E286E0A0E276E3D0ED66ED5
:1003B800F294F28C9EA0E3EF01F0E5EF01F000EF7C
:1003C80002F02506D8A0260625502610D8A4EFEF5F
:1003D80001F0F1EF01F0FBEF01F0D7EC03F0000EB4
:1003E800126E010E116E000E266E0A0E256E0B0E91
:1003F800CF6EDC0ECE6E9E90F2A005EF02F007EFF6
:1004080002F022EF02F081B80CEF02F00EEF02F0DA
:100418001CEF02F0000E0C6E000E0B6E000E066E46
:10042800000E056E000E046E000E036E20EF02F043
:10043800000E066E010E056E8150F2902A92110090
:10044800908053EF02F0000E916E94EF02F03F0E91
:10045800916E94EF02F0060E916E94EF02F05B0E2F
:10046800916E94EF02F04F0E916E94EF02F0660ECB
:10047800916E94EF02F06D0E916E94EF02F07D0E86
:10048800916E94EF02F0070E916E94EF02F07F0EDA
:10049800916E94EF02F06F0E916E94EF02F017C018
:1004A80019F018C01AF01A50000AD8B462EF02F016
:1004B800FF0AD8B48DEF02F094EF02F01950000A49
:1004C800D8B42BEF02F0010AD8B42FEF02F0030AD8
:1004D800D8B433EF02F0010AD8B437EF02F0070AB4
:1004E800D8B43BEF02F0010AD8B43FEF02F0030A98
:1004F800D8B443EF02F0010AD8B447EF02F00F0A6C
:10050800D8B44BEF02F0010AD8B44FEF02F094EFE1
:1005180002F01950FF0AD8B427EF02F094EF02F066
:100528009090D5EC03F01200000E1C6E1ABEA1EFDD
:1005380002F09FEF02F0A7EF02F0196C1A1ED8B074
:100548001A2A010E1C6E18BEAEEF02F0ACEF02F0D4
:10055800B4EF02F0176C181ED8B0182A010E1C1A36
:10056800000E1E6E000E1D6E19501A10D8B4BFEF83
:1005780002F0C1EF02F0E9EF02F0010E1B6EC9EFC5
:1005880002F0D89019361A361B2A1AAECEEF02F0AE
:10059800D0EF02F0C5EF02F0D8901D361E36195084
:1005A800175C1A501858D8A0DCEF02F0DEEF02F002
:1005B800E3EF02F01950175E1A50185A1D80D890B0
:1005C8001A3219321B2ED0EF02F01C50D8B4EFEFBC
:1005D80002F0F1EF02F0F5EF02F01D6C1E1ED8B02C
:1005E8001E2A1DC017F01EC018F01200000E186E4B
:1005F800020E176E88EC03F0CDEC03F01B6E1B5057
:10060800176E186A24EC02F01B0ECF6E580ECE6ED1
:10061800000E266E0A0E256E000E126E000E116E6A
:1006280011501210D8B41BEF03F01DEF03F014EFB4
:1006380003F0FF0E186E176824EC02F01150121028
:10064800D8B429EF03F02BEF03F022EF03F0CDEC41
:1006580003F01B6E1B50176E186A24EC02F0115041
:100668001210D8B43AEF03F03CEF03F033EF03F085
:10067800FF0E186E176824EC02F011501210D8B44F
:1006880048EF03F04AEF03F041EF03F04FEC03F0BB
:10069800D3EC03F01200000EF26E000ED76E000EBF
:1006A800D66ED70ED56E3D0ED66E000E286E0A0E8B
:1006B800276EF28A000ECF6E000ECE6EF10ECD6E52
:1006C8000B0ECF6EDC0ECE6E000E266E0A0E256E59
:1006D8009D80000E246E0A0E236E100E996E300E49
:1006E800C26E000EC16EAA0EC06EC280000E9A6E57
:1006F800000E946E000E956E000E966E9368F2864C
:10070800F28ED6EC03F0120017501810D8A48FEF11
:1007180003F091EF03F09BEF03F08C808C828C84C4
:100728008C868B928D928B848D84B6EF03F01704A0
:100738001810D8A4A2EF03F0A4EF03F0AEEF03F073
:100748008C808C828C848C868B828D828B948D9409
:10075800B6EF03F08C908C928C948C968B928D9241
:100768008B948D94D4EC03F01200B00EF66E070E45
:10077800F76E000EF86E0900F5CF29F000EE01F0D3
:10078800160EEE6AE806FDE12A902A920001CFEFE4
:1007980000F029501200120012001200120012007C
:0907A800120012001200120004FC
:020000040020DA
:08000000FFFFFFFFFFFFFFFF00
:020000040030CA
:0E000000FF06191EF38381FFFFC0FFE0FF40E3
:00000001FF
