:020000040000FA
:0400000007EF00F016
:1000080014829FED00F00AEF01F0908034EF00F0C9
:100018003F0E916E6AEF00F0060E916E6AEF00F0E7
:100028005B0E916E6AEF00F04F0E916E6AEF00F072
:10003800660E916E6AEF00F06D0E916E6AEF00F039
:100048007D0E916E6AEF00F0070E916E6AEF00F078
:100058007F0E916E6AEF00F06F0E916E6AEF00F0FE
:100068000BC00DF00CC00EF00E50000AD8B43FEFD4
:1000780000F06AEF00F00D50000AD8B40CEF00F061
:10008800010AD8B410EF00F0030AD8B414EF00F056
:10009800010AD8B418EF00F0070AD8B41CEF00F032
:1000A800010AD8B420EF00F0030AD8B424EF00F016
:1000B800010AD8B428EF00F00F0AD8B42CEF00F0EA
:1000C800010AD8B430EF00F06AEF00F0909021EC0C
:1000D80001F012000B500C10D8A475EF00F077EF68
:1000E80000F081EF00F08C808C828C848C868B925F
:1000F8008D928B848D849CEF00F00B040C10D8A497
:1001080088EF00F08AEF00F094EF00F08C808C828A
:100118008C848C868B828D828B948D949CEF00F0DE
:100128008C908C928C948C968B928D928B948D94CF
:1001380020EC01F0120006009EACA5EF00F0A7EF3E
:1001480000F0ACEF00F0000E046E010E036E9E9CF2
:10015800F2A4B1EF00F0B3EF00F0CAEF00F011061F
:10016800D8A0120611501210D8A4BDEF00F0BFEFAE
:1001780000F0C7EF00F0000E086E010E076E000ECB
:10018800126E0A0E116E3D0ED66EF2941492110084
:10019800F2EC00F007500810D8B4D5EF00F0D7EF14
:1001A80000F0DBEF00F0000E086E000E076E035043
:1001B8000410D8B4E2EF00F0E4EF00F0CEEF00F066
:1001C8000FC00BF010C00CF009EC00F0000E046E2C
:1001D800000E036ECEEF00F007EF00F0000EF26E97
:1001E800000ED76E000ED66ED70ED56E3D0ED66EAB
:1001F800000E126E0A0E116E300EC26E000EC16E27
:10020800820EC06EC280E00EF26E1200480EF66ECC
:10021800020EF76E000EF86E0900F5CF13F000EE2F
:1002280001F00A0EEE6AE806FDE11490149200014E
:10023800CCEF00F01350120012001200120012004E
:0102480004B1
:020000040020DA
:08000000FFFFFFFFFFFFFFFF00
:020000040030CA
:0E000000FF06191EF38381FFFFC0FFE0FF40E3
:00000001FF
