:020000040000FA
:0400000007EF00F016
:100008002A82BBED02F0DAEF03F070EC03F0135034
:100018001410D8B412EF00F014EF00F01AEF00F04B
:10002800000E146E000E136E9D8CC28211501210B9
:10003800D8B421EF00F023EF00F037EF00F0000E06
:10004800126E000E116E2306D8A024062350241029
:10005800D8A431EF00F033EF00F037EF00F0F1EC07
:1000680003F01BEC03F00F501010D8B43EEF00F073
:1000780040EF00F07BEF00F0000E106E000E0F6EE8
:10008800C4CF1FF0010E1F161F50216E206AC4CF67
:1000980022F0020E22162250176E186A000E1A6EEF
:1000A800020E196E59EC02F0090ED8901736183660
:1000B800E82E59EF00F02050172621501822C3507F
:1000C8001724096E000E18200A6E09C015F00AC020
:1000D80016F0F3EC03F01FEC01F017C007F018C09E
:1000E80008F007C017F008C018F0E5EC01F001505F
:1000F8000210D8B482EF00F084EF00F0ACEF00F00B
:10010800000E026E000E016E05500610D8B48FEF77
:1001180000F091EF00F0ACEF00F003500410D8B4F9
:1001280098EF00F09AEF00F0A8EF00F0000E0C6EC8
:10013800010E0B6E000E046E000E036E000E066EAE
:10014800000E056EACEF00F0000E046E010E036E9B
:100158000D500E10D8B4B3EF00F0B5EF00F0D2EFA9
:1001680000F0000E0E6E000E0D6E8AB8BEEF00F0A5
:10017800C0EF00F0CEEF00F0000E0C6E000E0B6E1C
:10018800000E066E000E056E000E046E000E036E65
:10019800D2EF00F0000E066E010E056E0B500C102B
:1001A800D8B4D9EF00F0DBEF00F00BEF00F0000E51
:1001B8000C6E000E0B6EF0EC03F0EEEC03F01F6E0D
:1001C800206A1F50075C0850800A216E2050800A60
:1001D8002158D8B0F2EF00F0F4EF00F0FCEF00F097
:1001E800000E186E000E176EA9EC03F00BEF00F06E
:1001F800EEEC03F01F6E206A07501F5C2050800A47
:10020800216E0850800A2158D8B00DEF01F00FEF89
:1002180001F017EF01F0000E186E010E176EA9EC31
:1002280003F00BEF00F0F2EC03F01BEC03F00BEF24
:1002380000F007EF00F00ABE2DEF01F00A5007E1C9
:10024800670E095CD8B02BEF01F02DEF01F033EF0A
:1002580001F0000E186E000E176EE4EF01F00ABEF2
:1002680041EF01F00A5007E1CD0E095CD8B03FEF2D
:1002780001F041EF01F047EF01F0000E186E010E9A
:10028800176EE4EF01F00ABE55EF01F0330E095C7A
:10029800010E0A58D8B053EF01F055EF01F05BEFAB
:1002A80001F0000E186E020E176EE4EF01F00ABEA0
:1002B80069EF01F0990E095C010E0A58D8B067EF92
:1002C80001F069EF01F06FEF01F0000E186E030EF8
:1002D800176EE4EF01F00ABE7CEF01F00928010E69
:1002E8000A58D8B07AEF01F07CEF01F082EF01F004
:1002F800000E186E040E176EE4EF01F00ABE90EFC0
:1003080001F0650E095C020E0A58D8B08EEF01F0B4
:1003180090EF01F096EF01F0000E186E050E176EC3
:10032800E4EF01F00ABEA4EF01F0CB0E095C020E67
:100338000A58D8B0A2EF01F0A4EF01F0AAEF01F03B
:10034800000E186E060E176EE4EF01F00ABEB8EF45
:1003580001F0310E095C030E0A58D8B0B6EF01F06F
:10036800B8EF01F0BEEF01F0000E186E070E176E21
:10037800E4EF01F00ABECCEF01F0970E095C030E22
:100388000A58D8B0CAEF01F0CCEF01F0D2EF01F073
:10039800000E186E080E176EE4EF01F00ABEDEEFCD
:1003A80001F0040E0A5CD8B0DCEF01F0DEEF01F0DA
:1003B800E4EF01F0000E186E090E176EE4EF01F07D
:1003C8001200908014EF02F0000E916E55EF02F0CB
:1003D8003F0E916E55EF02F0060E916E55EF02F04A
:1003E8005B0E916E55EF02F04F0E916E55EF02F0D5
:1003F800660E916E55EF02F06D0E916E55EF02F09C
:100408007D0E916E55EF02F0070E916E55EF02F0DA
:100418007F0E916E55EF02F06F0E916E55EF02F060
:1004280017C019F018C01AF01A50000AD8B423EFF0
:1004380002F0FF0AD8B44EEF02F055EF02F019505F
:10044800000AD8B4ECEF01F0010AD8B4F0EF01F0DB
:10045800030AD8B4F4EF01F0010AD8B4F8EF01F0B8
:10046800070AD8B4FCEF01F0010AD8B400EF02F093
:10047800030AD8B404EF02F0010AD8B408EF02F076
:100488000F0AD8B40CEF02F0010AD8B410EF02F04A
:1004980055EF02F01950FF0AD8B4E8EF01F055EF14
:1004A80002F09090F6EC03F01200000E1C6E1ABEDB
:1004B80062EF02F060EF02F068EF02F0196C1A1EAA
:1004C800D8B01A2A010E1C6E18BE6FEF02F06DEF3D
:1004D80002F075EF02F0176C181ED8B0182A010E3A
:1004E8001C1A000E1E6E000E1D6E19501A10D8B47C
:1004F80080EF02F082EF02F0AAEF02F0010E1B6E0D
:100508008AEF02F0D89019361A361B2A1AAE8FEFE6
:1005180002F091EF02F086EF02F0D8901D361E36F9
:100528001950175C1A501858D8A09DEF02F09FEF89
:1005380002F0A4EF02F01950175E1A50185A1D80E5
:10054800D8901A3219321B2E91EF02F01C50D8B4F1
:10055800B0EF02F0B2EF02F0B6EF02F01D6C1E1E13
:10056800D8B01E2A1DC017F01EC018F012000600D1
:100578009EACC1EF02F0C3EF02F0C8EF02F0000E2C
:10058800106E010E0F6E9E9CF2A4CDEF02F0CFEF1D
:1005980002F0EAEF02F0000E026E010E016E27066D
:1005A800D8A0280627502810D8A4DDEF02F0DFEFE6
:1005B80002F0E7EF02F0000E146E010E136E000E4B
:1005C800286E0A0E276E3D0ED66EF2949EA0EFEFAF
:1005D80002F0F1EF02F00CEF03F02506D8A0260692
:1005E80025502610D8A4FBEF02F0FDEF02F007EF2C
:1005F80003F0F8EC03F0000E126E010E116E000EFF
:10060800266E0A0E256E1B0ECF6E580ECE6E9E906D
:10061800F2A011EF03F013EF03F019EF03F0000E4F
:100628000E6E010E0D6E8150F2902A921100000E8E
:10063800186E020E176EA9EC03F0EEEC03F01B6EB9
:100648001B50176E186AE5EC01F01B0ECF6E580EA2
:10065800CE6E000E266E0A0E256E000E126E000E6D
:10066800116E11501210D8B43CEF03F03EEF03F0B6
:1006780035EF03F0FF0E186E1768E5EC01F0115026
:100688001210D8B44AEF03F04CEF03F043EF03F035
:10069800EEEC03F01B6E1B50176E186AE5EC01F0C8
:1006A80011501210D8B45BEF03F05DEF03F054EF74
:1006B80003F0FF0E186E1768E5EC01F011501210E8
:1006C800D8B469EF03F06BEF03F062EF03F070EC5E
:1006D80003F0F4EC03F01200000EF26E000ED76E79
:1006E800000ED66ED70ED56E3D0ED66E000E286E55
:1006F8000A0E276EF28A000ECF6E000ECE6EF10E35
:10070800CD6E1B0ECF6E580ECE6E000E266E0A0EE4
:10071800256E9D80000E246E0A0E236E300EC26E6A
:10072800000EC16EAA0EC06EC280000E9A6E000E38
:10073800996E000E946E000E956E000E966E93687C
:10074800F286F28EF7EC03F0120017501810D8A4B6
:10075800B0EF03F0B2EF03F0BCEF03F08C808C82B3
:100768008C848C868B928D928B848D84D7EF03F04A
:1007780017041810D8A4C3EF03F0C5EF03F0CFEFA8
:1007880003F08C808C828C848C868B828D828B94F7
:100798008D94D7EF03F08C908C928C948C968B92DE
:1007A8008D928B948D94F5EC03F01200F20EF66E98
:1007B800070EF76E000EF86E0900F5CF29F000EE6F
:1007C80001F0160EEE6AE806FDE12A902A92000171
:1007D80009EF00F029501200120012001200120056
:0B07E8001200120012001200120004A8
:020000040020DA
:08000000FFFFFFFFFFFFFFFF00
:020000040030CA
:0E000000FF06191EF38381FFFFC0FFE0FF40E3
:00000001FF
