:020000040000FA
:0400000007EF00F016
:100008002C82ABED02F06FEF03F009EC03F0155012
:100018001610D8B412EF00F014EF00F01CEF00F047
:10002800000E166E000E156E9D8CC2828CEC03F0CD
:1000380011501210D8B423EF00F025EF00F02BEF89
:1000480000F0000E126E000E116E89EC03F01350D2
:100058001410D8B432EF00F034EF00F03EEF00F0A7
:10006800000E146E000E136E91EC03F083EC03F097
:100078008AEC03F00F501010D8B445EF00F047EFAA
:1000880000F07CEF00F0000E106E000E0F6EC4CF73
:1000980021F0010E21162150236E226AC4CF24F0CC
:1000A800020E24162450196E1A6A000E1C6E020ED7
:1000B8001B6E49EC02F0090ED89019361A36E82E54
:1000C80060EF00F02250192623501A22C350192439
:1000D800096E000E1A200A6E1EEC01F019C007F016
:1000E8001AC008F007C019F008C01AF0E4EC01F0D3
:1000F80001500210D8B483EF00F085EF00F0ADEFA7
:1001080000F0000E026E000E016E05500610D8B405
:1001180090EF00F092EF00F0ADEF00F00350041004
:10012800D8B499EF00F09BEF00F0A9EF00F0000EB3
:100138000C6E010E0B6E000E046E000E036E000EA8
:10014800066E000E056EADEF00F0000E046E010E97
:10015800036E0D500E10D8B4B4EF00F0B6EF00F0F7
:10016800D3EF00F0000E0E6E000E0D6E8AB8BFEFD2
:1001780000F0C1EF00F0CFEF00F0000E0C6E000EA3
:100188000B6E000E066E000E056E000E046E000E5D
:10019800036ED3EF00F0000E066E010E056E0B50D5
:1001A8000C10D8B4DAEF00F0DCEF00F00BEF00F041
:1001B800000E0C6E000E0B6E88EC03F086EC03F05C
:1001C800216E226A2150255C2650800A236E225017
:1001D800800A2358D8B0F3EF00F0F5EF00F0FDEFF8
:1001E80000F0000E1A6E000E196E3EEC03F00BEFD5
:1001F80000F086EC03F0216E226A2550215C225023
:10020800800A236E2650800A2358D8B00EEF01F0DA
:1002180010EF01F018EF01F0000E1A6E010E196EC2
:100228003EEC03F00BEF00F08BEC03F00BEF00F06B
:1002380007EF00F00ABE2CEF01F00A5007E1670E45
:10024800095CD8B02AEF01F02CEF01F032EF01F091
:10025800000E1A6E000E196EE3EF01F00ABE40EFB1
:1002680001F00A5007E1CD0E095CD8B03EEF01F06D
:1002780040EF01F046EF01F0000E1A6E010E196E04
:10028800E3EF01F00ABE54EF01F0330E095C010EF2
:100298000A58D8B052EF01F054EF01F05AEF01F0CC
:1002A800000E1A6E020E196EE3EF01F00ABE68EF37
:1002B80001F0990E095C010E0A58D8B066EF01F0FA
:1002C80068EF01F06EEF01F0000E1A6E030E196E62
:1002D800E3EF01F00ABE7BEF01F00928010E0A588E
:1002E800D8B079EF01F07BEF01F081EF01F0000E5B
:1002F8001A6E040E196EE3EF01F00ABE8FEF01F0DB
:10030800650E095C020E0A58D8B08DEF01F08FEF28
:1003180001F095EF01F0000E1A6E050E196EE3EF6D
:1003280001F00ABEA3EF01F0CB0E095C020E0A58D9
:10033800D8B0A1EF01F0A3EF01F0A9EF01F0000E92
:100348001A6E060E196EE3EF01F00ABEB7EF01F060
:10035800310E095C030E0A58D8B0B5EF01F0B7EFBB
:1003680001F0BDEF01F0000E1A6E070E196EE3EFF3
:1003780001F00ABECBEF01F0970E095C030E0A5894
:10038800D8B0C9EF01F0CBEF01F0D1EF01F0000ECA
:100398001A6E080E196EE3EF01F00ABEDDEF01F0E8
:1003A800040E0A5CD8B0DBEF01F0DDEF01F0E3EFFB
:1003B80001F0000E1A6E090E196EE3EF01F012003B
:1003C80090800FEF02F03F0E916E45EF02F0060E9F
:1003D800916E45EF02F05B0E916E45EF02F04F0E05
:1003E800916E45EF02F0660E916E45EF02F06D0ECC
:1003F800916E45EF02F07D0E916E45EF02F0070E0B
:10040800916E45EF02F07F0E916E45EF02F06F0E90
:10041800916E45EF02F019C01BF01AC01CF01C5079
:10042800000AD8B41AEF02F045EF02F01B50000A98
:10043800D8B4E7EF01F0010AD8B4EBEF01F0030AF2
:10044800D8B4EFEF01F0010AD8B4F3EF01F0070ACE
:10045800D8B4F7EF01F0010AD8B4FBEF01F0030AB2
:10046800D8B4FFEF01F0010AD8B403EF02F00F0A85
:10047800D8B407EF02F0010AD8B40BEF02F045EF49
:1004880002F090908EEC03F01200000E1E6E1CBE5F
:1004980052EF02F050EF02F058EF02F01B6C1C1EF6
:1004A800D8B01C2A010E1E6E1ABE5FEF02F05DEF77
:1004B80002F065EF02F0196C1A1ED8B01A2A010E64
:1004C8001E1A000E206E000E1F6E1B501C10D8B492
:1004D80070EF02F072EF02F09AEF02F0010E1D6E5B
:1004E8007AEF02F0D8901B361C361D2A1CAE7FEF1F
:1004F80002F081EF02F076EF02F0D8901F36203636
:100508001B50195C1C501A58D8A08DEF02F08FEFC1
:1005180002F094EF02F01B50195E1C501A5A1F800B
:10052800D8901C321B321D2E81EF02F01E50D8B419
:10053800A0EF02F0A2EF02F0A6EF02F01F6C201E5F
:10054800D8B0202A1FC019F020C01AF012000600E7
:100558009EACB1EF02F0B3EF02F0B8EF02F0000E7C
:10056800106E010E0F6E9E9CF2A4BDEF02F0BFEF5D
:1005780002F0DAEF02F0000E026E010E016E29069B
:10058800D8A02A0629502A10D8A4CDEF02F0CFEF20
:1005980002F0D7EF02F0000E166E010E156E000E77
:1005A8002A6E0A0E296E3D0ED66EF2949EA0DFEFDB
:1005B80002F0E1EF02F0FAEF02F02706D8A02806D1
:1005C80027502810D8A4EBEF02F0EDEF02F0F5EF7A
:1005D80002F0000E146E010E136E000E286E7D0ED2
:1005E800276E3C0ECF6EB00ECE6E9E90F2A0FFEF3F
:1005F80002F001EF03F007EF03F0000E0E6E010E9C
:100608000D6E8150F2902C921100000EF26E000EC9
:10061800D76E000ED66ED70ED56E3D0ED66E000E76
:100628002A6E0A0E296EF28A000ECF6E000ECE6E6A
:10063800F90ECD6E3C0ECF6EB00ECE6E000E286E4B
:100648007D0E276E9D80300EC26E000EC16EAA0E02
:10065800C06EC280000E9A6E000E996E000E946EE7
:10066800000E956E000E966E9368F286F28E90ECF0
:1006780003F0120019501A10D8A445EF03F047EF01
:1006880003F051EF03F08C808C828C848C868B92E3
:100698008D928B848D846CEF03F019041A10D8A402
:1006A80058EF03F05AEF03F064EF03F08C808C826C
:1006B8008C848C868B828D828B948D946CEF03F066
:1006C8008C908C928C948C968B928D928B948D942A
:1006D8008DEC03F01200240EF66E070EF76E000E76
:1006E800F86E0900F5CF2BF000EE01F0180EEE6A57
:1006F800E806FDE12C902C92000109EF00F08FEC48
:1007080003F012002B501200120012001200120007
:0D0718001200120012001200120012000464
:020000040020DA
:08000000FFFFFFFFFFFFFFFF00
:020000040030CA
:0E000000FF06191EF38381FFFFC0FFE0FF40E3
:00000001FF
