:020000040000FA
:0400000007EF00F016
:10000800288209ED00F018EF04F006009EAC0FEF0F
:1000180000F011EF00F016EF00F0000E0C6E010E6C
:100028000B6E9E9CF2A41BEF00F01DEF00F074EF26
:1000380000F042EF00F001040210D8A426EF00F00F
:1000480028EF00F058EF00F0000E046E020E036E69
:10005800000E0A6E010E096E58EF00F0030E01182B
:100068000210D8A43AEF00F03CEF00F058EF00F08F
:10007800000E046E000E036E58EF00F003C013F07C
:1000880004C014F01450000AD8B44DEF00F058EF33
:1000980000F01350010AD8B41FEF00F0020AD8B4D8
:1000A80032EF00F058EF00F003C001F004C002F096
:1000B8002506D8A0260625502610D8A466EF00F0FD
:1000C80068EF00F070EF00F0000E106E010E0F6E7A
:1000D800000E266E0A0E256E3D0ED66EF294F28C38
:1000E8009EA079EF00F07BEF00F096EF00F023067A
:1000F800D8A0240623502410D8A485EF00F087EF59
:1001080000F091EF00F036EC04F0000E0E6E010ED8
:100118000D6E000E246E0A0E236E0B0ECF6EDC0ED3
:10012800CE6E9E90F2A09BEF00F09DEF00F0ECEFFA
:1001380000F081B8A2EF00F0A4EF00F0D4EF00F0D7
:10014800B2EF00F0000E046E000E036EEAEF00F04E
:10015800000E046E030E036EEAEF00F003C013F006
:1001680004C014F01450000AD8B4BDEF00F0EAEF50
:1001780000F01350010AD8B4A6EF00F0030AD8B46F
:10018800ACEF00F0EAEF00F0000E046E010E036E13
:10019800EAEF00F0000E046E020E036EEAEF00F0C4
:1001A80003C013F004C014F01450000AD8B4DFEFF1
:1001B80000F0EAEF00F01350000AD8B4C8EF00F0DE
:1001C800030AD8B4CEEF00F0EAEF00F08150F290C5
:1001D8002892110008BEFCEF00F0085007E1670EF6
:1001E800075CD8B0FAEF00F0FCEF00F002EF01F086
:1001F800000E166E000E156EB3EF01F008BE10EF7C
:1002080001F0085007E1CD0E075CD8B00EEF01F001
:1002180010EF01F016EF01F0000E166E010E156ECC
:10022800B3EF01F008BE24EF01F0330E075C010EB6
:100238000858D8B022EF01F024EF01F02AEF01F0BE
:10024800000E166E020E156EB3EF01F008BE38EF01
:1002580001F0990E075C010E0858D8B036EF01F08E
:1002680038EF01F03EEF01F0000E166E030E156E2A
:10027800B3EF01F008BE4BEF01F00728010E085854
:10028800D8B049EF01F04BEF01F051EF01F0000E4B
:10029800166E040E156EB3EF01F008BE5FEF01F0A5
:1002A800650E075C020E0858D8B05DEF01F05FEFED
:1002B80001F065EF01F0000E166E050E156EB3EF36
:1002C80001F008BE73EF01F0CB0E075C020E085870
:1002D800D8B071EF01F073EF01F079EF01F0000E83
:1002E800166E060E156EB3EF01F008BE87EF01F02B
:1002F800310E075C030E0858D8B085EF01F087EF80
:1003080001F08DEF01F0000E166E070E156EB3EFBB
:1003180001F008BE9BEF01F0970E075C030E08582A
:10032800D8B099EF01F09BEF01F0A1EF01F0000EBA
:10033800166E080E156EB3EF01F008BEADEF01F0B2
:10034800040E085CD8B0ABEF01F0ADEF01F0B3EFED
:1003580001F0000E166E090E156EB3EF01F01200D3
:10036800AEEC03F00F501010D8B4BDEF01F0BFEFA2
:1003780001F0C5EF01F0000E106E000E0F6E9D8C9F
:10038800C2820D500E10D8B4CCEF01F0CEEF01F0C0
:10039800E2EF01F0000E0E6E000E0D6E2106D8A0E1
:1003A800220621502210D8A4DCEF01F0DEEF01F084
:1003B800E2EF01F02FEC04F0E7EC02F00B500C1028
:1003C800D8B4E9EF01F0EBEF01F026EF02F0000EF0
:1003D8000C6E000E0B6EC4CF1DF0010E1D161D50C5
:1003E8001F6E1E6AC4CF20F0020E20162050156E14
:1003F800166A000E186E020E176E4CEC03F0090E0A
:10040800D89015361636E82E04EF02F01E50152641
:100418001F501622C3501524076E000E1620086EB2
:1004280007C011F008C012F031EC04F0EEEC00F057
:1004380015C005F016C006F005C015F006C016F088
:1004480073EC02F009500A10D8B42DEF02F02FEF28
:1004580002F0B6EF01F0000E0A6E000E096E2EECE7
:1004680004F02CEC04F01D6E1E6A05501D5C1E5035
:10047800800A1F6E0650800A1F58D8B046EF02F057
:1004880048EF02F050EF02F0000E166E000E156EE7
:10049800E7EC03F0B6EF01F02CEC04F01D6E1E6AD9
:1004A8001D50055C0650800A1F6E1E50800A1F589A
:1004B800D8B061EF02F063EF02F06BEF02F0000ECC
:1004C800166E010E156EE7EC03F0B6EF01F030EC96
:1004D80004F0E7EC02F0B6EF01F007EF00F09086C9
:1004E800A2EF02F0000E916EE3EF02F03F0E916E64
:1004F800E3EF02F0060E916EE3EF02F05B0E916EF1
:10050800E3EF02F04F0E916EE3EF02F0660E916E8C
:10051800E3EF02F06D0E916EE3EF02F07D0E916E47
:10052800E3EF02F0070E916EE3EF02F07F0E916E9B
:10053800E3EF02F06F0E916EE3EF02F015C017F0D3
:1005480016C018F01850000AD8B4B1EF02F0FF0A2C
:10055800D8B4DCEF02F076EF02F01750000AD8B4F6
:100568007AEF02F0010AD8B47EEF02F0030AD8B499
:1005780082EF02F0010AD8B486EF02F0070AD8B475
:100588008AEF02F0010AD8B48EEF02F0030AD8B459
:1005980092EF02F0010AD8B496EF02F00F0AD8B42D
:1005A8009AEF02F0010AD8B49EEF02F076EF02F05B
:1005B8001750FF0AD8B476EF02F076EF02F034EC69
:1005C80004F090961200000E166E020E156EE7ECFF
:1005D80003F02CEC04F0196E1950156E166A73ECC2
:1005E80002F00B0ECF6EDC0ECE6E000E246E0A0EDD
:1005F800236E000E0E6E000E0D6E0D500E10D8B448
:1006080008EF03F00AEF03F001EF03F0000E0E6E9F
:10061800000E0D6EFF0E166E156873EC02F00D508D
:100628000E10D8B41AEF03F01CEF03F013EF03F029
:10063800000E0E6E000E0D6E2CEC04F0196E1950A3
:10064800156E166A73EC02F00D500E10D8B42FEF29
:1006580003F031EF03F028EF03F0000E0E6E000EEA
:100668000D6EFF0E166E156873EC02F00D500E102D
:10067800D8B441EF03F043EF03F03AEF03F0000E74
:100688000E6E000E0D6EAEEC03F032EC04F01200AC
:10069800000E1A6E18BE55EF03F053EF03F05BEF30
:1006A80003F0176C181ED8B0182A010E1A6E16BE61
:1006B80062EF03F060EF03F068EF03F0156C161EAD
:1006C800D8B0162A010E1A1A000E1C6E000E1B6EE8
:1006D80017501810D8B473EF03F075EF03F09DEFBF
:1006E80003F0010E196E7DEF03F0D8901736183617
:1006F800192A18AE82EF03F084EF03F079EF03F0C4
:10070800D8901B361C361750155C18501658D8A0B0
:1007180090EF03F092EF03F097EF03F01750155E98
:100728001850165A1B80D89018321732192E84EF99
:1007380003F01A50D8B4A3EF03F0A5EF03F0A9EF24
:1007480003F01B6C1C1ED8B01C2A1BC015F01CC063
:1007580016F01200000EF26E000ED76E000ED66E66
:10076800D70ED56E3D0ED66E000E266E0A0E256E7D
:10077800F28A000ECF6E000ECE6EF10ECD6E0B0E0D
:10078800CF6EDC0ECE6E000E246E0A0E236E9D8098
:10079800000E226E0A0E216E100E996E300EC26E79
:1007A800000EC16EAA0EC06EC280000E9A6E000EB8
:1007B800946E000E956E000E966E9368F286F28E19
:1007C80035EC04F0120015501610D8A4EEEF03F023
:1007D800F0EF03F0FAEF03F08C808C828C848C8627
:1007E8008B928D928B848D8415EF04F0150416106E
:1007F800D8A401EF04F003EF04F00DEF04F08C80AF
:100808008C828C848C868B828D828B948D9415EF50
:1008180004F08C908C928C948C968B928D928B9405
:100828008D9433EC04F012006E0EF66E080EF76E1F
:10083800000EF86E0900F5CF27F000EE01F0120E59
:10084800EE6AE806FDE1289028920001B4EF01F075
:10085800275012001200120012001200120012009B
:07086800120012001200044F
:020000040020DA
:08000000FFFFFFFFFFFFFFFF00
:020000040030CA
:0E000000FF06191EF38381FFFFC0FFE0FF40E3
:00000001FF
