:020000040000FA
:0400000007EF00F016
:10000800288209ED00F018EF04F006009EAC0FEF0F
:1000180000F011EF00F016EF00F0000E0C6E010E6C
:100028000B6E9E9CF2A41BEF00F01DEF00F073EF27
:1000380000F042EF00F001040210D8A426EF00F00F
:1000480028EF00F058EF00F0000E046E020E036E69
:10005800000E0A6E010E096E58EF00F0030E01182B
:100068000210D8A43AEF00F03CEF00F058EF00F08F
:10007800000E046E000E036E58EF00F003C013F07C
:1000880004C014F01450000AD8B44DEF00F058EF33
:1000980000F01350010AD8B41FEF00F0020AD8B4D8
:1000A80032EF00F058EF00F003C001F004C002F096
:1000B8002506D8A0260625502610D8A466EF00F0FD
:1000C80068EF00F070EF00F0000E106E010E0F6E7A
:1000D800000E266E0A0E256E3D0ED66EF2949EA078
:1000E80078EF00F07AEF00F095EF00F02306D8A043
:1000F800240623502410D8A484EF00F086EF00F0E3
:1001080090EF00F036EC04F0000E0E6E010E0D6E4E
:10011800000E246E0A0E236E0B0ECF6EDC0ECE6E12
:100128009E90F2A09AEF00F09CEF00F0EBEF00F049
:1001380081B8A1EF00F0A3EF00F0D3EF00F0B1EF2A
:1001480000F0000E046E000E036EE9EF00F0000EE2
:10015800046E030E036EE9EF00F003C013F004C051
:1001680014F01450000AD8B4BCEF00F0E9EF00F026
:100178001350010AD8B4A5EF00F0030AD8B4ABEFC6
:1001880000F0E9EF00F0000E046E010E036EE9EFD7
:1001980000F0000E046E020E036EE9EF00F003C0DB
:1001A80013F004C014F01450000AD8B4DEEF00F0C5
:1001B800E9EF00F01350000AD8B4C7EF00F0030AC3
:1001C800D8B4CDEF00F0E9EF00F08150F29028921A
:1001D800110008BEFBEF00F0085007E1670E075C4E
:1001E800D8B0F9EF00F0FBEF00F001EF01F0000EDE
:1001F800166E000E156EB2EF01F008BE0FEF01F09B
:10020800085007E1CD0E075CD8B00DEF01F00FEFF5
:1002180001F015EF01F0000E166E010E156EB2EF2B
:1002280001F008BE23EF01F0330E075C010E0858F9
:10023800D8B021EF01F023EF01F029EF01F0000E13
:10024800166E020E156EB2EF01F008BE37EF01F020
:10025800990E075C010E0858D8B035EF01F037EF5A
:1002680001F03DEF01F0000E166E030E156EB2EFB1
:1002780001F008BE4AEF01F00728010E0858D8B06F
:1002880048EF01F04AEF01F050EF01F0000E166E52
:10029800040E156EB2EF01F008BE5EEF01F0650EB8
:1002A800075C020E0858D8B05CEF01F05EEF01F071
:1002B80064EF01F0000E166E050E156EB2EF01F038
:1002C80008BE72EF01F0CB0E075C020E0858D8B0DA
:1002D80070EF01F072EF01F078EF01F0000E166E8A
:1002E800060E156EB2EF01F008BE86EF01F0310E72
:1002F800075C030E0858D8B084EF01F086EF01F0D0
:100308008CEF01F0000E166E070E156EB2EF01F0BD
:1003180008BE9AEF01F0970E075C030E0858D8B094
:1003280098EF01F09AEF01F0A0EF01F0000E166EC1
:10033800080E156EB2EF01F008BEACEF01F0040E26
:10034800085CD8B0AAEF01F0ACEF01F0B2EF01F011
:10035800000E166E090E156EB2EF01F01200ADEC2C
:1003680003F00F501010D8B4BCEF01F0BEEF01F04D
:10037800C4EF01F0000E106E000E0F6E9D8CC2824D
:100388000D500E10D8B4CBEF01F0CDEF01F0E1EF36
:1003980001F0000E0E6E000E0D6E2106D8A022068A
:1003A80021502210D8A4DBEF01F0DDEF01F0E1EFDE
:1003B80001F02FEC04F0E6EC02F00B500C10D8B46E
:1003C800E8EF01F0EAEF01F025EF02F0000E0C6E05
:1003D800000E0B6EC4CF1DF0010E1D161D501F6EB2
:1003E8001E6AC4CF20F0020E20162050156E166A21
:1003F800000E186E020E176E4BEC03F0090ED89023
:1004080015361636E82E03EF02F01E5015261F503B
:100418001622C3501524076E000E1620086E07C05A
:1004280011F008C012F031EC04F0EDEC00F015C04A
:1004380005F016C006F005C015F006C016F072ECFF
:1004480002F009500A10D8B42CEF02F02EEF02F097
:10045800B5EF01F0000E0A6E000E096E2EEC04F0E6
:100468002CEC04F01D6E1E6A05501D5C1E50800A9F
:100478001F6E0650800A1F58D8B045EF02F047EFAC
:1004880002F04FEF02F0000E166E000E156EE7EC4C
:1004980003F0B5EF01F02CEC04F01D6E1E6A1D5040
:1004A800055C0650800A1F6E1E50800A1F58D8B07F
:1004B80060EF02F062EF02F06AEF02F0000E166ED3
:1004C800010E156EE7EC03F0B5EF01F030EC04F027
:1004D800E6EC02F0B5EF01F007EF00F09086A1EF2F
:1004E80002F0000E916EE2EF02F03F0E916EE2EF25
:1004F80002F0060E916EE2EF02F05B0E916EE2EFF3
:1005080002F04F0E916EE2EF02F0660E916EE2EF8E
:1005180002F06D0E916EE2EF02F07D0E916EE2EF49
:1005280002F0070E916EE2EF02F07F0E916EE2EF9D
:1005380002F06F0E916EE2EF02F015C017F016C0D0
:1005480018F01850000AD8B4B0EF02F0FF0AD8B477
:10055800DBEF02F075EF02F01750000AD8B479EF1C
:1005680002F0010AD8B47DEF02F0030AD8B481EF93
:1005780002F0010AD8B485EF02F0070AD8B489EF6F
:1005880002F0010AD8B48DEF02F0030AD8B491EF53
:1005980002F0010AD8B495EF02F00F0AD8B499EF27
:1005A80002F0010AD8B49DEF02F075EF02F017507F
:1005B800FF0AD8B475EF02F075EF02F034EC04F0DE
:1005C80090961200000E166E020E156EE7EC03F000
:1005D8002CEC04F0196E1950156E166A72EC02F0C4
:1005E8000B0ECF6EDC0ECE6E000E246E0A0E236E3E
:1005F800000E0E6E000E0D6E0D500E10D8B407EFE3
:1006080003F009EF03F000EF03F0000E0E6E000E8A
:100618000D6EFF0E166E156872EC02F00D500E107E
:10062800D8B419EF03F01BEF03F012EF03F0000E3C
:100638000E6E000E0D6E2CEC04F0196E1950156E2E
:10064800166A72EC02F00D500E10D8B42EEF03F0BB
:1006580030EF03F027EF03F0000E0E6E000E0D6E64
:10066800FF0E166E156872EC02F00D500E10D8B41D
:1006780040EF03F042EF03F039EF03F0000E0E6E87
:10068800000E0D6EADEC03F032EC04F01200000E1B
:100698001A6E18BE54EF03F052EF03F05AEF03F04E
:1006A800176C181ED8B0182A010E1A6E16BE61EF04
:1006B80003F05FEF03F067EF03F0156C161ED8B078
:1006C800162A010E1A1A000E1C6E000E1B6E175009
:1006D8001810D8B472EF03F074EF03F09CEF03F036
:1006E800010E196E7CEF03F0D89017361836192AC8
:1006F80018AE81EF03F083EF03F078EF03F0D890A2
:100708001B361C361750155C18501658D8A08FEF9A
:1007180003F091EF03F096EF03F01750155E1850B1
:10072800165A1B80D89018321732192E83EF03F00F
:100738001A50D8B4A2EF03F0A4EF03F0A8EF03F027
:100748001B6C1C1ED8B01C2A1BC015F01CC016F050
:100758001200000EF26E000ED76E000ED66ED70E87
:10076800D56E3D0ED66E000E266E0A0E256EF28AE6
:10077800000ECF6E000ECE6EF10ECD6E0B0ECF6E4C
:10078800DC0ECE6E000E246E0A0E236E9D80000EC7
:10079800226E0A0E216E100E996E300EC26E000E79
:1007A800C16EAA0EC06EC280000E9A6E000E946EC4
:1007B800000E956E000E966E9368F286F28EF28C9D
:1007C80035EC04F0120015501610D8A4EEEF03F023
:1007D800F0EF03F0FAEF03F08C808C828C848C8627
:1007E8008B928D928B848D8415EF04F0150416106E
:1007F800D8A401EF04F003EF04F00DEF04F08C80AF
:100808008C828C848C868B828D828B948D9415EF50
:1008180004F08C908C928C948C968B928D928B9405
:100828008D9433EC04F012006E0EF66E080EF76E1F
:10083800000EF86E0900F5CF27F000EE01F0120E59
:10084800EE6AE806FDE1289028920001B3EF01F076
:10085800275012001200120012001200120012009B
:07086800120012001200044F
:020000040020DA
:08000000FFFFFFFFFFFFFFFF00
:020000040030CA
:0E000000FF06191EF38381FFFFC0FFE0FF40E3
:00000001FF
