:020000040000FA
:0400000007EF00F016
:100008001B82F2ED00F0B6EF01F050EC01F0125057
:100018001310D8B412EF00F014EF00F01AEF00F04C
:10002800000E136E000E126ED3EC01F0105011107A
:10003800D8B421EF00F023EF00F02FEF00F0D0EC60
:1000480001F0D8EC01F0CAEC01F0000E116E000EC0
:10005800106ED1EC01F00E500F10D8B436EF00F04E
:1000680038EF00F042EF00F008C001F009C002F0DC
:100078008DEC00F0000E0F6E000E0E6E0C500D1081
:10008800D8B449EF00F04BEF00F00BEF00F0CFECE5
:1000980001F0000E0D6E000E0C6ECDEC01F0056E39
:1000A800066A05500A5C0B50800A076E0650800AE3
:1000B8000758D8B062EF00F064EF00F06CEF00F082
:1000C800000E026E000E016E85EC01F00BEF00F0E1
:1000D800CDEC01F0056E066A0A50055C0650800AF0
:1000E800076E0B50800A0758D8B07DEF00F07FEFFD
:1000F80000F087EF00F0000E026E010E016E85EC35
:1001080001F00BEF00F0D2EC01F00BEF00F007EF7D
:1001180000F09080B8EF00F03F0E916EEEEF00F027
:10012800060E916EEEEF00F05B0E916EEEEF00F0B2
:100138004F0E916EEEEF00F0660E916EEEEF00F04E
:100148006D0E916EEEEF00F07D0E916EEEEF00F009
:10015800070E916EEEEF00F07F0E916EEEEF00F05D
:100168006F0E916EEEEF00F001C003F002C004F0D4
:100178000450000AD8B4C3EF00F0EEEF00F00350CB
:10018800000AD8B490EF00F0010AD8B494EF00F058
:10019800030AD8B498EF00F0010AD8B49CEF00F035
:1001A800070AD8B4A0EF00F0010AD8B4A4EF00F011
:1001B800030AD8B4A8EF00F0010AD8B4ACEF00F0F5
:1001C8000F0AD8B4B0EF00F0010AD8B4B4EF00F0C9
:1001D800EEEF00F09090D5EC01F0120006009EAC16
:1001E800F8EF00F0FAEF00F0FFEF00F0000E0F6EEE
:1001F800010E0E6E9E9CF2A404EF01F006EF01F0D2
:100208001DEF01F01806D8A0190618501910D8A427
:1002180010EF01F012EF01F01AEF01F0000E136E6B
:10022800010E126E000E196E0A0E186E3D0ED66E75
:10023800F2949EA022EF01F024EF01F03DEF01F0CF
:100248001606D8A0170616501710D8A42EEF01F0DE
:1002580030EF01F038EF01F0000E116E010E106E54
:10026800000E176E7D0E166E3C0ECF6EB00ECE6E63
:100278009E90F2A042EF01F044EF01F04EEF01F042
:10028800000E0D6E010E0C6E8150F290000E0D6E78
:10029800010E0C6E1B921100000EF26E000ED76E4E
:1002A800000ED66ED70ED56E3D0ED66E000E196EA8
:1002B8000A0E186EF28A000ECF6E000ECE6EF90E80
:1002C800CD6E3C0ECF6EB00ECE6E000E176E7D0E4C
:1002D800166E9D80300EC26E000EC16EAA0EC06EE4
:1002E800C280000E9A6E000E996E000E946E000E7B
:1002F800956E000E966E9368F286F28ED7EC01F03A
:10030800120001500210D8A48CEF01F08EEF01F01A
:1003180098EF01F08C808C828C848C868B928D92E5
:100328008B848D84B3EF01F001040210D8A49FEFF1
:1003380001F0A1EF01F0ABEF01F08C808C828C848E
:100348008C868B828D828B948D94B3EF01F08C9088
:100358008C928C948C968B928D928B948D94D4ECF9
:1003680001F01200B20EF66E030EF76E000EF86E74
:100378000900F5CF1AF000EE0CF00A0EEE6AE80656
:10038800FDE11B901B92000109EF00F0D6EC01F093
:1003980012001A501200120012001200120012006D
:0B03A8001200120012001200120004EC
:020000040020DA
:08000000FFFFFFFFFFFFFFFF00
:020000040030CA
:0E000000FF06191EF38381FFFFC0FFE0FF40E3
:00000001FF
