:020000040000FA
:0400000007EF00F016
:100008002A82AAED02F072EF03F008EC03F0135015
:100018001410D8B412EF00F014EF00F01CEF00F049
:10002800000E146E000E136E9D8CC2828FEC03F0CE
:1000380011501210D8B423EF00F025EF00F03DEF77
:1000480000F0000E126E000E116E8CEC03F0230609
:10005800D8A0240623502410D8A435EF00F037EF99
:1000680000F03DEF00F094EC03F086EC03F08DEC2B
:1000780003F00F501010D8B444EF00F046EF00F032
:100088007BEF00F0000E106E000E0F6EC4CF1FF055
:10009800010E1F161F50216E206AC4CF22F0020ED7
:1000A80022162250176E186A000E1A6E020E196E6A
:1000B80048EC02F0090ED89017361836E82E5FEF94
:1000C80000F02050172621501822C3501724096E1B
:1000D800000E18200A6E1DEC01F017C007F018C0BA
:1000E80008F007C017F008C018F0E3EC01F0015061
:1000F8000210D8B482EF00F084EF00F0ACEF00F00B
:10010800000E026E000E016E05500610D8B48FEF77
:1001180000F091EF00F0ACEF00F003500410D8B4F9
:1001280098EF00F09AEF00F0A8EF00F0000E0C6EC8
:10013800010E0B6E000E046E000E036E000E066EAE
:10014800000E056EACEF00F0000E046E010E036E9B
:100158000D500E10D8B4B3EF00F0B5EF00F0D2EFA9
:1001680000F0000E0E6E000E0D6E8AB8BEEF00F0A5
:10017800C0EF00F0CEEF00F0000E0C6E000E0B6E1C
:10018800000E066E000E056E000E046E000E036E65
:10019800D2EF00F0000E066E010E056E0B500C102B
:1001A800D8B4D9EF00F0DBEF00F00BEF00F0000E51
:1001B8000C6E000E0B6E8BEC03F089EC03F01F6ED7
:1001C800206A1F50075C0850800A216E2050800A60
:1001D8002158D8B0F2EF00F0F4EF00F0FCEF00F097
:1001E800000E186E000E176E41EC03F00BEF00F0D6
:1001F80089EC03F01F6E206A07501F5C2050800AAC
:10020800216E0850800A2158D8B00DEF01F00FEF89
:1002180001F017EF01F0000E186E010E176E41EC99
:1002280003F00BEF00F08EEC03F00BEF00F007EF9C
:1002380000F00ABE2BEF01F00A5007E1670E095CD7
:10024800D8B029EF01F02BEF01F031EF01F0000EEB
:10025800186E000E176EE2EF01F00ABE3FEF01F0D4
:100268000A5007E1CD0E095CD8B03DEF01F03FEF31
:1002780001F045EF01F0000E186E010E176EE2EF67
:1002880001F00ABE53EF01F0330E095C010E0A5863
:10029800D8B051EF01F053EF01F059EF01F0000E23
:1002A800186E020E176EE2EF01F00ABE67EF01F05A
:1002B800990E095C010E0A58D8B065EF01F067EF96
:1002C80001F06DEF01F0000E186E030E176EE2EFED
:1002D80001F00ABE7AEF01F00928010E0A58D8B0D9
:1002E80078EF01F07AEF01F080EF01F0000E186E60
:1002F800040E176EE2EF01F00ABE8EEF01F0650EF4
:10030800095C020E0A58D8B08CEF01F08EEF01F0AC
:1003180094EF01F0000E186E050E176EE2EF01F073
:100328000ABEA2EF01F0CB0E095C020E0A58D8B043
:10033800A0EF01F0A2EF01F0A8EF01F0000E186E97
:10034800060E176EE2EF01F00ABEB6EF01F0310EAD
:10035800095C030E0A58D8B0B4EF01F0B6EF01F00B
:10036800BCEF01F0000E186E070E176EE2EF01F0F9
:100378000ABECAEF01F0970E095C030E0A58D8B0FE
:10038800C8EF01F0CAEF01F0D0EF01F0000E186ECF
:10039800080E176EE2EF01F00ABEDCEF01F0040E62
:1003A8000A5CD8B0DAEF01F0DCEF01F0E2EF01F01F
:1003B800000E186E090E176EE2EF01F01200908021
:1003C8000EEF02F03F0E916E44EF02F0060E916EB2
:1003D80044EF02F05B0E916E44EF02F04F0E916E07
:1003E80044EF02F0660E916E44EF02F06D0E916ECE
:1003F80044EF02F07D0E916E44EF02F0070E916E0D
:1004080044EF02F07F0E916E44EF02F06F0E916E92
:1004180044EF02F017C019F018C01AF01A50000A79
:10042800D8B419EF02F044EF02F01950000AD8B41A
:10043800E6EF01F0010AD8B4EAEF01F0030AD8B4F4
:10044800EEEF01F0010AD8B4F2EF01F0070AD8B4D0
:10045800F6EF01F0010AD8B4FAEF01F0030AD8B4B4
:10046800FEEF01F0010AD8B402EF02F00F0AD8B487
:1004780006EF02F0010AD8B40AEF02F044EF02F0E6
:10048800909091EC03F01200000E1C6E1ABE51EF12
:1004980002F04FEF02F057EF02F0196C1A1ED8B0B5
:1004A8001A2A010E1C6E18BE5EEF02F05CEF02F015
:1004B80064EF02F0176C181ED8B0182A010E1C1A27
:1004C800000E1E6E000E1D6E19501A10D8B46FEF74
:1004D80002F071EF02F099EF02F0010E1B6E79EF56
:1004E80002F0D89019361A361B2A1AAE7EEF02F09F
:1004F80080EF02F075EF02F0D8901D361E361950C5
:10050800175C1A501858D8A08CEF02F08EEF02F042
:1005180093EF02F01950175E1A50185A1D80D890A0
:100528001A3219321B2E80EF02F01C50D8B49FEFFC
:1005380002F0A1EF02F0A5EF02F01D6C1E1ED8B06C
:100548001E2A1DC017F01EC018F0120006009EAC2F
:10055800B0EF02F0B2EF02F0B7EF02F0000E106E4B
:10056800010E0F6E9E9CF2A4BCEF02F0BEEF02F0EB
:10057800D9EF02F0000E026E010E016E2706D8A018
:10058800280627502810D8A4CCEF02F0CEEF02F0AE
:10059800D6EF02F0000E146E010E136E000E286ED8
:1005A8000A0E276E3D0ED66EF2949EA0DEEF02F084
:1005B800E0EF02F0F9EF02F02506D8A02606255054
:1005C8002610D8A4EAEF02F0ECEF02F0F4EF02F004
:1005D800000E126E010E116E000E266E0A0E256EAA
:1005E8001B0ECF6E580ECE6E9E90F2A0FEEF02F05C
:1005F80000EF03F006EF03F0000E0E6E010E0D6E15
:100608008150F2902A921100000EF26E000ED76E01
:10061800000ED66ED70ED56E3D0ED66E000E286E25
:100628000A0E276EF28A000ECF6E000ECE6EF10E05
:10063800CD6E1B0ECF6E580ECE6E000E266E0A0EB5
:10064800256E9D80000E246E0A0E236E300EC26E3B
:10065800000EC16EAA0EC06EC280000E9A6E000E09
:10066800996E000E946E000E956E000E966E93684D
:10067800F286F28E93EC03F0120017501810D8A4EB
:1006880048EF03F04AEF03F054EF03F08C808C82BC
:100698008C848C868B928D928B848D846FEF03F083
:1006A80017041810D8A45BEF03F05DEF03F067EFB1
:1006B80003F08C808C828C848C868B828D828B94C8
:1006C8008D946FEF03F08C908C928C948C968B9217
:1006D8008D928B948D9490EC03F012002A0EF66E96
:1006E800070EF76E000EF86E0900F5CF29F000EE40
:1006F80001F0160EEE6AE806FDE12A902A92000142
:1007080009EF00F092EC03F01200295012001200D9
:100718001200120012001200120012001200120041
:03072800120004B8
:020000040020DA
:08000000FFFFFFFFFFFFFFFF00
:020000040030CA
:0E000000FF06191EF38381FFFFC0FFE0FF40E3
:00000001FF
